:020000040000FA
:10000000A00500200D0300001503000017030000E9
:10001000190300001B0300001D0300000000000086
:100020000000000000000000000000000F080000B9
:10003000210300000000000023030000250300004E
:1000400027030000290300002B0300002D030000FC
:100050002F030000310300003303000035030000CC
:1000600037030000390300003B0300003D0300009C
:100070003F030000410300009D040000B1040000A4
:10008000C5040000D90400004B0300004D0300002C
:100090004F0300005103000053030000550300000C
:1000A00057030000590300005B0300005D030000DC
:1000B0005F030000610300006303000065030000AC
:1000C00067030000690300006B0300006D0300007C
:1000D0006F0300007103000073030000750300004C
:1000E0007703000079030000000000007B0300009C
:1000F0007D0300007F0300008103000083030000F4
:100100008503000087030000890300008B030000C3
:1001100000000000000000008D0300008F030000BD
:100120009103000093030000950300009703000073
:10013000990300009B0300009D0300009F03000043
:1001400000000000000000000000000000000000AF
:10015000A1030000A3030000A5030000A703000003
:10016000000000000000000000000000000000008F
:10017000000000000000000000000000000000007F
:10018000000000000000000000000000000000006F
:10019000000000000000000000000000000000005F
:1001A000000000000000000000000000000000004F
:1001B000A9030000AB030000AD030000AF03000083
:1001C000B1030000B3030000B5030000B703000053
:1001D000B9030000BB030000BD030000BF03000023
:1001E000C1030000C3030000C503000000000000BD
:1001F00000000000C7030000C9030000CB0300009B
:10020000CD030000CF03000000000000000000004C
:10021000D1030000D3030000D5030000D703000082
:10022000D9030000DB030000DD030000DF03000052
:10023000E1030000E3030000E5030000E703000022
:10024000E9030000EB030000ED030000EF030000F2
:10025000F1030000F3030000F5030000F7030000C2
:10026000F9030000FB030000FD03000000F002F8AA
:1002700000F03CF80AA090E8000C82448344AAF104
:100280000107DA4501D100F031F8AFF2090EBAE802
:100290000F0013F0010F18BFFB1A43F001031847BA
:1002A000D4080000F4080000103A24BF78C878C1D0
:1002B000FAD8520724BF30C830C144BF04680C606C
:1002C000704700000023002400250026103A28BFB4
:1002D00078C1FBD8520728BF30C148BF0B607047B8
:1002E0001FB500F00DFC1FBD10B510BD00F09BF850
:1002F0001146FFF7F5FF00F0DDFB00F0B9F803B49D
:10030000FFF7F2FF03BC00F0C1F800003F48804750
:100310003F480047FEE7FEE7FEE7FEE7FEE7FEE7B1
:10032000FEE7FEE7FEE7FEE7FEE7FEE7FEE7FEE7A5
:10033000FEE7FEE7FEE7FEE7FEE7FEE7FEE7FEE795
:10034000FEE7FEE7FEE7FEE7FEE7FEE7FEE7FEE785
:10035000FEE7FEE7FEE7FEE7FEE7FEE7FEE7FEE775
:10036000FEE7FEE7FEE7FEE7FEE7FEE7FEE7FEE765
:10037000FEE7FEE7FEE7FEE7FEE7FEE7FEE7FEE755
:10038000FEE7FEE7FEE7FEE7FEE7FEE7FEE7FEE745
:10039000FEE7FEE7FEE7FEE7FEE7FEE7FEE7FEE735
:1003A000FEE7FEE7FEE7FEE7FEE7FEE7FEE7FEE725
:1003B000FEE7FEE7FEE7FEE7FEE7FEE7FEE7FEE715
:1003C000FEE7FEE7FEE7FEE7FEE7FEE7FEE7FEE705
:1003D000FEE7FEE7FEE7FEE7FEE7FEE7FEE7FEE7F5
:1003E000FEE7FEE7FEE7FEE7FEE7FEE7FEE7FEE7E5
:1003F000FEE7FEE7FEE7FEE7FEE7FEE7FEE70000BA
:1004000004480549034A054B70470000A10A000053
:100410006D020000A0030020A0050020A003002022
:10042000704770477047754600F02CF8AE460500DF
:100430006946534620F00700854618B020B5FFF7FF
:10044000DFFFBDE820404FF000064FF000074FF0FF
:1004500000084FF0000B21F00701AC46ACE8C009E2
:10046000ACE8C009ACE8C009ACE8C0098D467047EB
:1004700010B50446AFF300802046BDE81040FFF7FA
:100480003EBF0000004870473C030020014918208F
:10049000ABBEFEE7260002007047000000B500205A
:1004A0000249087000F0E6F800BD000010000020CE
:1004B00000B502200249087000F0DCF800BD000021
:1004C0001000002000B502200249087000F0D2F8A8
:1004D00000BD00001000002000B503200249087094
:1004E00000F0C8F800BD0000100000202DE9F04722
:1004F00001464FF000080020A4E011F8306001EB45
:10050000C004627801EBC004A37801EBC004E77873
:1005100001EBC004D4F804C036B1012E2CD0022E59
:1005200052D0032E27D177E0494D002415E015F86D
:10053000048015F804904FEA840A09FA0AF9DFF8F2
:1005400014A1DAF840A049EA0A09DFF808A1CAF8BC
:10055000409004F1010909F0FF04082CE7DB3D4C51
:10056000246A1443DFF8EC90C9F820404C466469D3
:100570001C43C9F8144062E0002414E0364D15F81D
:1005800004904FEA840A09FA0AF9DFF8C8A0DAF8F9
:1005900060A049EA0A09DFF8BCA0CAF8609004F13B
:1005A000010909F0FF04042CE8DB2A4C246A44EA20
:1005B0000214DFF8A090C9F820404C46646944EA70
:1005C0000314C9F814403AE0002414E0234D15F850
:1005D00004904FEA840A09FA0AF9DFF878A0DAF8F9
:1005E00060A049EA0A09DFF86CA0CAF8609004F13B
:1005F000010909F0FF04042CE8DB164C246A44EAE4
:100600000224DFF85090C9F820404C46646944EA5F
:100610000324C9F8144012E0114C2478DFF8349018
:10062000C9F8A0404C46246A44EA0234C9F8204084
:100630004C46646944EA0334C9F8144000BF00BF63
:10064000441CE0B20228FFF658AFBDE8F087000076
:10065000500B000000800340580B00005C0B0000B2
:10066000600B000010B50248FFF740FF10BD00000E
:10067000640B000010B54148007830B1012823D048
:10068000022840D0032877D15CE0002019E000BFA9
:100690003B4909680029FBD03A490988642902DCF2
:1006A0000021384A11803849896C8AB235490B8853
:1006B0000988491C334C2180344921F81320411CFE
:1006C000C8B20828E3DB57E0002019E000BF30493A
:1006D00009680029FBD02B490988642902DC002124
:1006E000284A11802849896C8AB226490B880988D2
:1006F000491C244C2180254921F81320411CC8B2F3
:100700000428E3DB38E0002019E000BF2149096834
:100710000029FBD01B490988642902DC0021194A01
:1007200011801949896C8AB216490B880988491CBD
:10073000144C2180154921F81320411CC8B204280B
:10074000E3DB19E0002014E00E490988642902DC8B
:1007500000210C4A11800C49896C8BB209490A8826
:100760000988491C074C2180084921F81230411C96
:10077000C8B20128E8DB00BF00BF10BD1000002098
:100780009009704212000020008003401C000020ED
:10079000900D70429011704210B562B600BF4FF0DC
:1007A000010484F3148800BF01DF10BD30B5014699
:1007B000C1F3C70301F00704074D55F8232002F2E7
:1007C000FF35AD0804EB4515AD0005F184452D68F6
:1007D00085F00105E8B230BD0C0B000030B50146D4
:1007E000C1F3C70301F00704064D55F8232002F2B8
:1007F000FF35AD0804EB4515AD0005F184452D68C6
:10080000E8B230BD0C0B0000C0F8FF1370474FF08A
:10081000000080F3148870472DE9F04F0346002252
:1008200037E102EB420A13F81A5002EB420A03EBDB
:100830004A0A9AF8019002EB420A03EB4A0A9AF834
:10084000026002EB420A03EB4A0A9AF8037002EBD9
:10085000420A03EB4A0A9AF804C002EB420A03EB8D
:100860004A0A9AF805404FEAD50805F00701DFF873
:100870002CA25AF82800D0F800A409FA01FB4AEA91
:100880000B0AC0F800A4A6B1D0F820A44FF0010BC9
:100890000BFA01FB4AEA0B0AC0F820A4D0F82CA5F9
:1008A0004FEA810B06FA0BFB4AEA0B0AC0F82CA5AB
:1008B00009E0D0F81CA54FF0010B0BFA01FB4AEA46
:1008C0000B0AC0F81CA547B3012F04D0022F0DD08E
:1008D000032F21D115E0D0F800A54FF0010B0BFA42
:1008E00001FB4AEA0B0AC0F800A515E0D0F804A500
:1008F0004FF0010B0BFA01FB4AEA0B0AC0F804A502
:100900000AE0D0F808B54FF0010A0AFA01FA4BEAFA
:100910000A0BC0F808B500BF00BFBCF1000F2BD018
:10092000BCF1010F06D0BCF1020F0ED0BCF1030FD9
:1009300021D115E0D0F810A54FF0010B0BFA01FB07
:100940004AEA0B0AC0F810A515E0D0F814B54FF02C
:10095000010A0AFA01FA4BEA0A0BC0F814B50AE0D8
:10096000D0F80CA54FF0010B0BFA01FB4AEA0B0A79
:10097000C0F80CA500BF00BF002C7DD0D0F810A49B
:100980004FF0000B0BFA01FB4AEA0B0AC0F810A467
:10099000062C6DD2DFE804F06C03182D4257D0F816
:1009A00004B44FF0000A0AFA01FA4BEA0A0BC0F845
:1009B00004B4D0F80CB44FF0010A0AFA01FA4BEA79
:1009C0000A0BC0F80CB453E0D0F804B44FF0000A9E
:1009D0000AFA01FA4BEA0A0BC0F804B4D0F80CA4E6
:1009E0004FF0000B0BFA01FB4AEA0B0AC0F80CA40B
:1009F0003EE0D0F804B44FF0000A0AFA01FA4BEADC
:100A00000A0BC0F804B4D0F808A44FF0010B0BFA9D
:100A100001FB4AEA0B0AC0F808A429E0D0F804A4B4
:100A20004FF0010B0BFA01FB4AEA0B0AC0F804A4D1
:100A3000D0F80CB44FF0010A0AFA01FA4BEA0A0B9B
:100A4000C0F80CB414E0D0F804B44FF0010A0AFA6C
:100A500001FA4BEA0A0BC0F804B4D0F80CA44FF02A
:100A6000000B0BFA01FB4AEA0B0AC0F80CA400BF0A
:100A700000BFD0F810B400E007E04FF0010A0AFA16
:100A800001FA4BEA0A0BC0F810B402F1010A0AF0AD
:100A9000FF02032AFFF6C5AEBDE8F08F240B00006D
:100AA0000348006840F47000014908607047000086
:100AB00088ED00E070B505257E24FFF76DFEFFF799
:100AC000D1FD00F015F80D20FFF788FE0546214600
:100AD0000648FFF799FE0F20FFF768FE05460F2036
:100AE000FFF764FE0546002070BD00000050004086
:100AF00010B50248FFF790FE10BD00003C0B00004F
:100B00004FF04070E1EE100A7047000000400040D6
:100B10000050004000600040007000400040024073
:100B20000050024000400040005000400060004083
:100B300000700040004002400050024002000200ED
:100B400001000D00000002000F010003030000007F
:100B5000010C0304050607080A0B0C0D030D02081F
:100B60000100000000000F0F000000000101010063
:100B700000000000940B0000000000201C0000009A
:100B8000A8020000B00B00001C000020840500003B
:100B9000C40200001C000020E4000020AC01002082
:100BA00074020020000000000000000000000000AF
:040000050000030DE7
:00000001FF
